{"abi":[{"type":"constructor","inputs":[],"stateMutability":"nonpayable"},{"type":"function","name":"DEFAULT_ADMIN_ROLE","inputs":[],"outputs":[{"name":"","type":"bytes32","internalType":"bytes32"}],"stateMutability":"view"},{"type":"function","name":"MEDIATOR_ROLE","inputs":[],"outputs":[{"name":"","type":"bytes32","internalType":"bytes32"}],"stateMutability":"view"},{"type":"function","name":"createAgreement","inputs":[{"name":"seller","type":"address","internalType":"address"},{"name":"buyer","type":"address","internalType":"address payable"},{"name":"amount","type":"uint256","internalType":"uint256"}],"outputs":[{"name":"","type":"uint256","internalType":"uint256"}],"stateMutability":"nonpayable"},{"type":"function","name":"fundAgreement","inputs":[{"name":"id","type":"uint256","internalType":"uint256"}],"outputs":[],"stateMutability":"payable"},{"type":"function","name":"getAgreement","inputs":[{"name":"id","type":"uint256","internalType":"uint256"}],"outputs":[{"name":"","type":"tuple","internalType":"struct EscrowAgreement","components":[{"name":"seller","type":"address","internalType":"address"},{"name":"funded","type":"bool","internalType":"bool"},{"name":"sellerAccepted","type":"bool","internalType":"bool"},{"name":"sellerRequestedRelease","type":"bool","internalType":"bool"},{"name":"buyerApprovedRelease","type":"bool","internalType":"bool"},{"name":"released","type":"bool","internalType":"bool"},{"name":"buyer","type":"address","internalType":"address payable"},{"name":"amount","type":"uint256","internalType":"uint256"}]}],"stateMutability":"view"},{"type":"function","name":"getBalance","inputs":[],"outputs":[{"name":"","type":"uint256","internalType":"uint256"}],"stateMutability":"view"},{"type":"function","name":"getRoleAdmin","inputs":[{"name":"role","type":"bytes32","internalType":"bytes32"}],"outputs":[{"name":"","type":"bytes32","internalType":"bytes32"}],"stateMutability":"view"},{"type":"function","name":"grantRole","inputs":[{"name":"role","type":"bytes32","internalType":"bytes32"},{"name":"account","type":"address","internalType":"address"}],"outputs":[],"stateMutability":"nonpayable"},{"type":"function","name":"hasRole","inputs":[{"name":"role","type":"bytes32","internalType":"bytes32"},{"name":"account","type":"address","internalType":"address"}],"outputs":[{"name":"","type":"bool","internalType":"bool"}],"stateMutability":"view"},{"type":"function","name":"releaseFunds","inputs":[{"name":"id","type":"uint256","internalType":"uint256"}],"outputs":[],"stateMutability":"payable"},{"type":"function","name":"renounceRole","inputs":[{"name":"role","type":"bytes32","internalType":"bytes32"},{"name":"callerConfirmation","type":"address","internalType":"address"}],"outputs":[],"stateMutability":"nonpayable"},{"type":"function","name":"revokeRole","inputs":[{"name":"role","type":"bytes32","internalType":"bytes32"},{"name":"account","type":"address","internalType":"address"}],"outputs":[],"stateMutability":"nonpayable"},{"type":"function","name":"sellerAcceptAgreement","inputs":[{"name":"id","type":"uint256","internalType":"uint256"}],"outputs":[],"stateMutability":"nonpayable"},{"type":"function","name":"supportsInterface","inputs":[{"name":"interfaceId","type":"bytes4","internalType":"bytes4"}],"outputs":[{"name":"","type":"bool","internalType":"bool"}],"stateMutability":"view"},{"type":"event","name":"AgreementEvent","inputs":[{"name":"seller","type":"address","indexed":true,"internalType":"address"},{"name":"buyer","type":"address","indexed":true,"internalType":"address"},{"name":"amount","type":"uint256","indexed":false,"internalType":"uint256"},{"name":"status","type":"uint8","indexed":false,"internalType":"enum AgreementStatus"},{"name":"timestamp","type":"uint256","indexed":false,"internalType":"uint256"}],"anonymous":false},{"type":"event","name":"RoleAdminChanged","inputs":[{"name":"role","type":"bytes32","indexed":true,"internalType":"bytes32"},{"name":"previousAdminRole","type":"bytes32","indexed":true,"internalType":"bytes32"},{"name":"newAdminRole","type":"bytes32","indexed":true,"internalType":"bytes32"}],"anonymous":false},{"type":"event","name":"RoleGranted","inputs":[{"name":"role","type":"bytes32","indexed":true,"internalType":"bytes32"},{"name":"account","type":"address","indexed":true,"internalType":"address"},{"name":"sender","type":"address","indexed":true,"internalType":"address"}],"anonymous":false},{"type":"event","name":"RoleRevoked","inputs":[{"name":"role","type":"bytes32","indexed":true,"internalType":"bytes32"},{"name":"account","type":"address","indexed":true,"internalType":"address"},{"name":"sender","type":"address","indexed":true,"internalType":"address"}],"anonymous":false},{"type":"error","name":"AccessControlBadConfirmation","inputs":[]},{"type":"error","name":"AccessControlUnauthorizedAccount","inputs":[{"name":"account","type":"address","internalType":"address"},{"name":"neededRole","type":"bytes32","internalType":"bytes32"}]},{"type":"error","name":"AddressNotSet","inputs":[]},{"type":"error","name":"FundsLock_AgreementNotFound","inputs":[{"name":"id","type":"uint256","internalType":"uint256"}]},{"type":"error","name":"FundsLock_AlreadyAccepted","inputs":[{"name":"id","type":"uint256","internalType":"uint256"}]},{"type":"error","name":"FundsLock_InvalidAgreementStatusTransition","inputs":[{"name":"current","type":"uint8","internalType":"enum AgreementStatus"},{"name":"next","type":"uint8","internalType":"enum AgreementStatus"}]},{"type":"error","name":"FundsLock_InvalidAmount","inputs":[{"name":"required","type":"uint256","internalType":"uint256"},{"name":"provided","type":"uint256","internalType":"uint256"}]},{"type":"error","name":"FundsLock_InvalidStakeholderAddress","inputs":[{"name":"provided","type":"address","internalType":"address"},{"name":"seller","type":"address","internalType":"address"},{"name":"buyer","type":"address","internalType":"address"}]},{"type":"error","name":"InsufficientAmount","inputs":[{"name":"minimum","type":"uint256","internalType":"uint256"},{"name":"provided","type":"uint256","internalType":"uint256"}]},{"type":"error","name":"SameStakeholderAddress","inputs":[{"name":"provided","type":"address","internalType":"address"}]}],"bytecode":{"object":"0x608060405234801561000f575f5ffd5b506100225f5f1b3361006160201b60201c565b506100537f1ba245b189ee1a18861983b83d5f02ae53fc6d341d4875b61b075054f9d34d093361006160201b60201c565b5060646001819055506101c0565b5f610072838361015660201b60201c565b61014c5760015f5f8581526020019081526020015f205f015f8473ffffffffffffffffffffffffffffffffffffffff1673ffffffffffffffffffffffffffffffffffffffff1681526020019081526020015f205f6101000a81548160ff0219169083151502179055506100e96101b960201b60201c565b73ffffffffffffffffffffffffffffffffffffffff168273ffffffffffffffffffffffffffffffffffffffff16847f2f8788117e7eff1d82e926ec794901d17c78024a50270940304540a733656f0d60405160405180910390a460019050610150565b5f90505b92915050565b5f5f5f8481526020019081526020015f205f015f8373ffffffffffffffffffffffffffffffffffffffff1673ffffffffffffffffffffffffffffffffffffffff1681526020019081526020015f205f9054906101000a900460ff16905092915050565b5f33905090565b61211a806101cd5f395ff3fe6080604052600436106100dc575f3560e01c80634d68282f1161007e57806391d148541161005857806391d14854146102ac578063a217fddf146102e8578063a5aa722814610312578063d547741f1461033a576100dc565b80634d68282f146102185780634f9f6fe61461023457806391b5e57114610270576100dc565b806319419868116100ba5780631941986814610162578063248a9ca31461018c5780632f2ff15d146101c857806336568abe146101f0576100dc565b806301ffc9a7146100e05780630a888fe41461011c57806312065fe014610138575b5f5ffd5b3480156100eb575f5ffd5b5061010660048036038101906101019190611a0d565b610362565b6040516101139190611a52565b60405180910390f35b61013660048036038101906101319190611a9e565b6103db565b005b348015610143575f5ffd5b5061014c61068c565b6040516101599190611ad8565b60405180910390f35b34801561016d575f5ffd5b50610176610693565b6040516101839190611b09565b60405180910390f35b348015610197575f5ffd5b506101b260048036038101906101ad9190611b4c565b6106b7565b6040516101bf9190611b09565b60405180910390f35b3480156101d3575f5ffd5b506101ee60048036038101906101e99190611bd1565b6106d3565b005b3480156101fb575f5ffd5b5061021660048036038101906102119190611bd1565b6106f5565b005b610232600480360381019061022d9190611a9e565b610770565b005b34801561023f575f5ffd5b5061025a60048036038101906102559190611a9e565b610c8b565b6040516102679190611cfc565b60405180910390f35b34801561027b575f5ffd5b5061029660048036038101906102919190611d40565b610dec565b6040516102a39190611ad8565b60405180910390f35b3480156102b7575f5ffd5b506102d260048036038101906102cd9190611bd1565b6112ec565b6040516102df9190611a52565b60405180910390f35b3480156102f3575f5ffd5b506102fc61134f565b6040516103099190611b09565b60405180910390f35b34801561031d575f5ffd5b5061033860048036038101906103339190611a9e565b611355565b005b348015610345575f5ffd5b50610360600480360381019061035b9190611bd1565b6115b4565b005b5f7f7965db0b000000000000000000000000000000000000000000000000000000007bffffffffffffffffffffffffffffffffffffffffffffffffffffffff1916827bffffffffffffffffffffffffffffffffffffffffffffffffffffffff191614806103d457506103d3826115d6565b5b9050919050565b5f60025f8381526020019081526020015f2090506103f88161163f565b61043957816040517fa013e4fe0000000000000000000000000000000000000000000000000000000081526004016104309190611ad8565b60405180910390fd5b806001015f9054906101000a900473ffffffffffffffffffffffffffffffffffffffff1673ffffffffffffffffffffffffffffffffffffffff163373ffffffffffffffffffffffffffffffffffffffff16146105155733815f015f9054906101000a900473ffffffffffffffffffffffffffffffffffffffff16826001015f9054906101000a900473ffffffffffffffffffffffffffffffffffffffff166040517f6552944500000000000000000000000000000000000000000000000000000000815260040161050c93929190611dfa565b60405180910390fd5b805f0160149054906101000a900460ff161561056b576001806040517f8af2299f000000000000000000000000000000000000000000000000000000008152600401610562929190611ea2565b60405180910390fd5b806002015434146105b9578060020154346040517f82cac9d30000000000000000000000000000000000000000000000000000000081526004016105b0929190611ec9565b60405180910390fd5b6001815f0160146101000a81548160ff021916908315150217905550806001015f9054906101000a900473ffffffffffffffffffffffffffffffffffffffff1673ffffffffffffffffffffffffffffffffffffffff16815f015f9054906101000a900473ffffffffffffffffffffffffffffffffffffffff1673ffffffffffffffffffffffffffffffffffffffff167f0f7d44f01fe30f87134bbb1a7ad6644820c056e8c94e03ae7103641e43d229f6836002015460014260405161068093929190611ef0565b60405180910390a35050565b5f47905090565b7f1ba245b189ee1a18861983b83d5f02ae53fc6d341d4875b61b075054f9d34d0981565b5f5f5f8381526020019081526020015f20600101549050919050565b6106dc826106b7565b6106e581611703565b6106ef8383611717565b50505050565b6106fd611800565b73ffffffffffffffffffffffffffffffffffffffff168173ffffffffffffffffffffffffffffffffffffffff1614610761576040517f6697b23200000000000000000000000000000000000000000000000000000000815260040160405180910390fd5b61076b8282611807565b505050565b5f60025f8381526020019081526020015f20905061078d8161163f565b6107ce57816040517fa013e4fe0000000000000000000000000000000000000000000000000000000081526004016107c59190611ad8565b60405180910390fd5b805f015f9054906101000a900473ffffffffffffffffffffffffffffffffffffffff1673ffffffffffffffffffffffffffffffffffffffff163373ffffffffffffffffffffffffffffffffffffffff161415801561087b5750806001015f9054906101000a900473ffffffffffffffffffffffffffffffffffffffff1673ffffffffffffffffffffffffffffffffffffffff163373ffffffffffffffffffffffffffffffffffffffff1614155b156109065733815f015f9054906101000a900473ffffffffffffffffffffffffffffffffffffffff16826001015f9054906101000a900473ffffffffffffffffffffffffffffffffffffffff166040517f655294450000000000000000000000000000000000000000000000000000000081526004016108fd93929190611dfa565b60405180910390fd5b805f0160149054906101000a900460ff1661095c57600160036040517f8af2299f000000000000000000000000000000000000000000000000000000008152600401610953929190611ea2565b60405180910390fd5b805f0160159054906101000a900460ff166109b257600260036040517f8af2299f0000000000000000000000000000000000000000000000000000000081526004016109a9929190611ea2565b60405180910390fd5b805f015f9054906101000a900473ffffffffffffffffffffffffffffffffffffffff1673ffffffffffffffffffffffffffffffffffffffff163373ffffffffffffffffffffffffffffffffffffffff16148015610a1d5750805f0160169054906101000a900460ff16155b15610a3f576001815f0160166101000a81548160ff0219169083151502179055505b806001015f9054906101000a900473ffffffffffffffffffffffffffffffffffffffff1673ffffffffffffffffffffffffffffffffffffffff163373ffffffffffffffffffffffffffffffffffffffff16148015610aab5750805f0160179054906101000a900460ff16155b15610acd576001815f0160176101000a81548160ff0219169083151502179055505b805f0160169054906101000a900460ff168015610af75750805f0160179054906101000a900460ff165b15610c8757805f0160189054906101000a900460ff1615610b4d576040517f08c379a0000000000000000000000000000000000000000000000000000000008152600401610b4490611f7f565b60405180910390fd5b6001815f0160186101000a81548160ff021916908315150217905550806001015f9054906101000a900473ffffffffffffffffffffffffffffffffffffffff1673ffffffffffffffffffffffffffffffffffffffff16815f015f9054906101000a900473ffffffffffffffffffffffffffffffffffffffff1673ffffffffffffffffffffffffffffffffffffffff167f0f7d44f01fe30f87134bbb1a7ad6644820c056e8c94e03ae7103641e43d229f68360020154600342604051610c1493929190611ef0565b60405180910390a3805f015f9054906101000a900473ffffffffffffffffffffffffffffffffffffffff1673ffffffffffffffffffffffffffffffffffffffff166108fc826002015490811502906040515f60405180830381858888f19350505050158015610c85573d5f5f3e3d5ffd5b505b5050565b610c93611941565b60025f8381526020019081526020015f20604051806101000160405290815f82015f9054906101000a900473ffffffffffffffffffffffffffffffffffffffff1673ffffffffffffffffffffffffffffffffffffffff1673ffffffffffffffffffffffffffffffffffffffff1681526020015f820160149054906101000a900460ff161515151581526020015f820160159054906101000a900460ff161515151581526020015f820160169054906101000a900460ff161515151581526020015f820160179054906101000a900460ff161515151581526020015f820160189054906101000a900460ff16151515158152602001600182015f9054906101000a900473ffffffffffffffffffffffffffffffffffffffff1673ffffffffffffffffffffffffffffffffffffffff1673ffffffffffffffffffffffffffffffffffffffff1681526020016002820154815250509050919050565b5f5f73ffffffffffffffffffffffffffffffffffffffff168473ffffffffffffffffffffffffffffffffffffffff161480610e5257505f73ffffffffffffffffffffffffffffffffffffffff168373ffffffffffffffffffffffffffffffffffffffff16145b15610e89576040517f126860a400000000000000000000000000000000000000000000000000000000815260040160405180910390fd5b8273ffffffffffffffffffffffffffffffffffffffff168473ffffffffffffffffffffffffffffffffffffffff1603610ef957836040517f71542cea000000000000000000000000000000000000000000000000000000008152600401610ef09190611f9d565b60405180910390fd5b5f8211610f40576001826040517f6d400e38000000000000000000000000000000000000000000000000000000008152600401610f37929190611fef565b60405180910390fd5b8373ffffffffffffffffffffffffffffffffffffffff163373ffffffffffffffffffffffffffffffffffffffff1614158015610fa857508273ffffffffffffffffffffffffffffffffffffffff163373ffffffffffffffffffffffffffffffffffffffff1614155b15610fee573384846040517f65529445000000000000000000000000000000000000000000000000000000008152600401610fe593929190611dfa565b60405180910390fd5b5f8473ffffffffffffffffffffffffffffffffffffffff163373ffffffffffffffffffffffffffffffffffffffff1614611028575f61102b565b60015b90505f6040518061010001604052808773ffffffffffffffffffffffffffffffffffffffff1681526020015f1515815260200183151581526020015f151581526020015f151581526020015f151581526020018673ffffffffffffffffffffffffffffffffffffffff1681526020018581525090508060025f60015f8154809291906110b690612043565b9190505581526020019081526020015f205f820151815f015f6101000a81548173ffffffffffffffffffffffffffffffffffffffff021916908373ffffffffffffffffffffffffffffffffffffffff1602179055506020820151815f0160146101000a81548160ff0219169083151502179055506040820151815f0160156101000a81548160ff0219169083151502179055506060820151815f0160166101000a81548160ff0219169083151502179055506080820151815f0160176101000a81548160ff02191690831515021790555060a0820151815f0160186101000a81548160ff02191690831515021790555060c0820151816001015f6101000a81548173ffffffffffffffffffffffffffffffffffffffff021916908373ffffffffffffffffffffffffffffffffffffffff16021790555060e082015181600201559050508473ffffffffffffffffffffffffffffffffffffffff168673ffffffffffffffffffffffffffffffffffffffff167f0f7d44f01fe30f87134bbb1a7ad6644820c056e8c94e03ae7103641e43d229f6865f4260405161125a93929190611ef0565b60405180910390a381156112d3578473ffffffffffffffffffffffffffffffffffffffff168673ffffffffffffffffffffffffffffffffffffffff167f0f7d44f01fe30f87134bbb1a7ad6644820c056e8c94e03ae7103641e43d229f6866002426040516112ca93929190611ef0565b60405180910390a35b600180546112e1919061208a565b925050509392505050565b5f5f5f8481526020019081526020015f205f015f8373ffffffffffffffffffffffffffffffffffffffff1673ffffffffffffffffffffffffffffffffffffffff1681526020019081526020015f205f9054906101000a900460ff16905092915050565b5f5f1b81565b5f60025f8381526020019081526020015f2090506113728161163f565b6113b357816040517fa013e4fe0000000000000000000000000000000000000000000000000000000081526004016113aa9190611ad8565b60405180910390fd5b805f015f9054906101000a900473ffffffffffffffffffffffffffffffffffffffff1673ffffffffffffffffffffffffffffffffffffffff163373ffffffffffffffffffffffffffffffffffffffff161461148e5733815f015f9054906101000a900473ffffffffffffffffffffffffffffffffffffffff16826001015f9054906101000a900473ffffffffffffffffffffffffffffffffffffffff166040517f6552944500000000000000000000000000000000000000000000000000000000815260040161148593929190611dfa565b60405180910390fd5b805f0160159054906101000a900460ff16156114e157816040517fa3d188d50000000000000000000000000000000000000000000000000000000081526004016114d89190611ad8565b60405180910390fd5b6001815f0160156101000a81548160ff021916908315150217905550806001015f9054906101000a900473ffffffffffffffffffffffffffffffffffffffff1673ffffffffffffffffffffffffffffffffffffffff16815f015f9054906101000a900473ffffffffffffffffffffffffffffffffffffffff1673ffffffffffffffffffffffffffffffffffffffff167f0f7d44f01fe30f87134bbb1a7ad6644820c056e8c94e03ae7103641e43d229f683600201546002426040516115a893929190611ef0565b60405180910390a35050565b6115bd826106b7565b6115c681611703565b6115d08383611807565b50505050565b5f7f01ffc9a7000000000000000000000000000000000000000000000000000000007bffffffffffffffffffffffffffffffffffffffffffffffffffffffff1916827bffffffffffffffffffffffffffffffffffffffffffffffffffffffff1916149050919050565b5f5f73ffffffffffffffffffffffffffffffffffffffff16825f015f9054906101000a900473ffffffffffffffffffffffffffffffffffffffff1673ffffffffffffffffffffffffffffffffffffffff16141580156116ed57505f73ffffffffffffffffffffffffffffffffffffffff16826001015f9054906101000a900473ffffffffffffffffffffffffffffffffffffffff1673ffffffffffffffffffffffffffffffffffffffff1614155b80156116fc57505f8260020154115b9050919050565b6117148161170f611800565b6118f0565b50565b5f61172283836112ec565b6117f65760015f5f8581526020019081526020015f205f015f8473ffffffffffffffffffffffffffffffffffffffff1673ffffffffffffffffffffffffffffffffffffffff1681526020019081526020015f205f6101000a81548160ff021916908315150217905550611793611800565b73ffffffffffffffffffffffffffffffffffffffff168273ffffffffffffffffffffffffffffffffffffffff16847f2f8788117e7eff1d82e926ec794901d17c78024a50270940304540a733656f0d60405160405180910390a4600190506117fa565b5f90505b92915050565b5f33905090565b5f61181283836112ec565b156118e6575f5f5f8581526020019081526020015f205f015f8473ffffffffffffffffffffffffffffffffffffffff1673ffffffffffffffffffffffffffffffffffffffff1681526020019081526020015f205f6101000a81548160ff021916908315150217905550611883611800565b73ffffffffffffffffffffffffffffffffffffffff168273ffffffffffffffffffffffffffffffffffffffff16847ff6391f5c32d9c69d2a47ea670b442974b53935d1edc7fd64eb21e047a839171b60405160405180910390a4600190506118ea565b5f90505b92915050565b6118fa82826112ec565b61193d5780826040517fe2517d3f0000000000000000000000000000000000000000000000000000000081526004016119349291906120bd565b60405180910390fd5b5050565b6040518061010001604052805f73ffffffffffffffffffffffffffffffffffffffff1681526020015f151581526020015f151581526020015f151581526020015f151581526020015f151581526020015f73ffffffffffffffffffffffffffffffffffffffff1681526020015f81525090565b5f5ffd5b5f7fffffffff0000000000000000000000000000000000000000000000000000000082169050919050565b6119ec816119b8565b81146119f6575f5ffd5b50565b5f81359050611a07816119e3565b92915050565b5f60208284031215611a2257611a216119b4565b5b5f611a2f848285016119f9565b91505092915050565b5f8115159050919050565b611a4c81611a38565b82525050565b5f602082019050611a655f830184611a43565b92915050565b5f819050919050565b611a7d81611a6b565b8114611a87575f5ffd5b50565b5f81359050611a9881611a74565b92915050565b5f60208284031215611ab357611ab26119b4565b5b5f611ac084828501611a8a565b91505092915050565b611ad281611a6b565b82525050565b5f602082019050611aeb5f830184611ac9565b92915050565b5f819050919050565b611b0381611af1565b82525050565b5f602082019050611b1c5f830184611afa565b92915050565b611b2b81611af1565b8114611b35575f5ffd5b50565b5f81359050611b4681611b22565b92915050565b5f60208284031215611b6157611b606119b4565b5b5f611b6e84828501611b38565b91505092915050565b5f73ffffffffffffffffffffffffffffffffffffffff82169050919050565b5f611ba082611b77565b9050919050565b611bb081611b96565b8114611bba575f5ffd5b50565b5f81359050611bcb81611ba7565b92915050565b5f5f60408385031215611be757611be66119b4565b5b5f611bf485828601611b38565b9250506020611c0585828601611bbd565b9150509250929050565b611c1881611b96565b82525050565b611c2781611a38565b82525050565b5f611c3782611b77565b9050919050565b611c4781611c2d565b82525050565b611c5681611a6b565b82525050565b61010082015f820151611c715f850182611c0f565b506020820151611c846020850182611c1e565b506040820151611c976040850182611c1e565b506060820151611caa6060850182611c1e565b506080820151611cbd6080850182611c1e565b5060a0820151611cd060a0850182611c1e565b5060c0820151611ce360c0850182611c3e565b5060e0820151611cf660e0850182611c4d565b50505050565b5f61010082019050611d105f830184611c5c565b92915050565b611d1f81611c2d565b8114611d29575f5ffd5b50565b5f81359050611d3a81611d16565b92915050565b5f5f5f60608486031215611d5757611d566119b4565b5b5f611d6486828701611bbd565b9350506020611d7586828701611d2c565b9250506040611d8686828701611a8a565b9150509250925092565b611d9981611b96565b82525050565b5f819050919050565b5f611dc2611dbd611db884611b77565b611d9f565b611b77565b9050919050565b5f611dd382611da8565b9050919050565b5f611de482611dc9565b9050919050565b611df481611dda565b82525050565b5f606082019050611e0d5f830186611d90565b611e1a6020830185611d90565b611e276040830184611deb565b949350505050565b7f4e487b71000000000000000000000000000000000000000000000000000000005f52602160045260245ffd5b60058110611e6d57611e6c611e2f565b5b50565b5f819050611e7d82611e5c565b919050565b5f611e8c82611e70565b9050919050565b611e9c81611e82565b82525050565b5f604082019050611eb55f830185611e93565b611ec26020830184611e93565b9392505050565b5f604082019050611edc5f830185611ac9565b611ee96020830184611ac9565b9392505050565b5f606082019050611f035f830186611ac9565b611f106020830185611e93565b611f1d6040830184611ac9565b949350505050565b5f82825260208201905092915050565b7f46756e647320616c72656164792072656c6561736564000000000000000000005f82015250565b5f611f69601683611f25565b9150611f7482611f35565b602082019050919050565b5f6020820190508181035f830152611f9681611f5d565b9050919050565b5f602082019050611fb05f830184611d90565b92915050565b5f819050919050565b5f611fd9611fd4611fcf84611fb6565b611d9f565b611a6b565b9050919050565b611fe981611fbf565b82525050565b5f6040820190506120025f830185611fe0565b61200f6020830184611ac9565b9392505050565b7f4e487b71000000000000000000000000000000000000000000000000000000005f52601160045260245ffd5b5f61204d82611a6b565b91507fffffffffffffffffffffffffffffffffffffffffffffffffffffffffffffffff820361207f5761207e612016565b5b600182019050919050565b5f61209482611a6b565b915061209f83611a6b565b92508282039050818111156120b7576120b6612016565b5b92915050565b5f6040820190506120d05f830185611d90565b6120dd6020830184611afa565b939250505056fea264697066735822122041dbdd80663c136a7e010743fa5b8192d8f814c5254ce87a81648d2ca435111e64736f6c63430008230033","linkReferences":{}},"methodIdentifiers":{"DEFAULT_ADMIN_ROLE()":"a217fddf","MEDIATOR_ROLE()":"19419868","createAgreement(address,address,uint256)":"91b5e571","fundAgreement(uint256)":"0a888fe4","getAgreement(uint256)":"4f9f6fe6","getBalance()":"12065fe0","getRoleAdmin(bytes32)":"248a9ca3","grantRole(bytes32,address)":"2f2ff15d","hasRole(bytes32,address)":"91d14854","releaseFunds(uint256)":"4d68282f","renounceRole(bytes32,address)":"36568abe","revokeRole(bytes32,address)":"d547741f","sellerAcceptAgreement(uint256)":"a5aa7228","supportsInterface(bytes4)":"01ffc9a7"},"id":31}